:03000000020643B2
:0C064300787FE4F6D8FD75812102068A5C
:1009F10043BC807F0A7E001209D553DEFC43DE0C26
:090A010053BCDFC2AD43DE20222C
:10092A00E4FDFC53BCF0EF240B42BC43BC40E5BCE5
:10093A0030E5FB53BCBF53BCDFAFBEAD07AFBDEF65
:05094A00FCEDAE04FF0E
:01094F002285
:1009D500D3EF9400EE940040120000007D0B7CBE26
:0B09E500DCFEDDFCEF1F70E81E80E56B
:0109F00022E4
:100A4F00D3EF9400EE9400400A000000EF1F70F007
:040A5F001E80ED22E6
:0D000E00E4F5C7F5C5F5C675C380F5C4223D
:1009970075C78075F50C75C5018FC4EEF5C375C6AF
:1009A7005A75C6A57F0A7E001209D5AFC202000E8E
:1009750075C78075F50C75C5028FC4EEF5C3AF0557
:100985008FC275C65A75C6A57F0A7E001209D502A3
:02099500000E52
:1009B70075C78075F50C75C5038FC4EEF5C375C68D
:0E09C7005A75C6A57F0A7E001209D502000EE1
:1009500075940A759310E4F592F59175960CF595DA
:10096000F5B2F5B1F5B4F5B3F5CAF5C9F5CCF5CBEB
:05097000F5CCF5E122C9
:100891003D3D3D3D3D3D3D3D20636F6465207374AD
:1008A100617274203D3D3D3D3D3D3D3D0D0A0020C1
:1008B1006E6F772074656D702069733A202564200E
:0308C1000D0A001D
:1007AE00E4900175F043BA801209501209F1120A51
:1007BE000A120A39120A63120AB9120A89120006BB
:1007CE0012080AD2AF7BFF7A0879911201097F01D4
:1007DE00120026900175EFF07F01120AA97F307E7C
:1007EE00021209D57BFF7A0879B0900175E0FF906F
:0C07FE000179E4F0A3EFF012010980D2B1
:10080A0090FEB6E0543FF090FEEDE4F090FEEB74FB
:10081A0070F090FEED7410F090FEF27404F0A37480
:10082A0052F090FEF0E4F0A37408F090FEFB74011D
:10083A00F0A3742CF090FEB5E04440F090FEFD74F5
:0A084A0080F090FEE0E04401F0228F
:100A6300538E7F5389F0E4F58A758CDCC28DD28C6A
:030A7300D2A922E3
:0A0AB900538EBF53890F43891022AA
:100A890053D1FDE4F5D575D4DC43D10843AF202219
:05000600D288D2A822FF
:100A0A0053A23F759850438E01438E0475D7E875FB
:080A1A00D6FF438E10D2AC227E
:100A760075AC1043AC4043D10275D5E075D4FE4346
:030A8600D1082272
:100A390075841043844043D12075D3E875D2FF43B0
:060A4900D18043AF102232
:04054400C10AC10B1C
:0300230002075081
:10075000C0E0C083C082C0D0A299E433559860093C
:10076000A299B3E4335298C20AA298E43355986030
:1007700034A298B3E43352982009219000F2E0D3D8
:1007800094804002E4F09000F2E024F5F582E43435
:1007900000F583E599F09000F2E004F09000F3E4B6
:0E07A000F0A37432F0D0D0D082D083D0E032FB
:03009300020A223C
:100A2200C0E0E58430E0035384FEE58430E1055301
:070A320084FDC20BD0E0328D
:0300030002001EDA
:01001E0032AF
:03001B0002001FC1
:01001F0032AE
:03000B0002085494
:10085400C0E0C083C082C0D09000F3E07002A3E087
:1008640060229000F4E024FFF09000F3E034FFF005
:10087400E07002A3E0700D9000F2E0D39400400415
:0D088400D209E4F0D0D0D082D083D0E03291
:03009B0002002040
:0100200032AD
:1005480060F2000003D403F9041F0445046C04940A
:1005580004BD04E6050F05390564058F05BA05E6EF
:100568000612063E066B069806C506F2071F074CDC
:10057800077907A607D30800082C0858088408B08C
:1005880008DB09060930095A098309AC09D509FCB1
:100598000A230A4A0A700A950ABA0ADD0B010B23D4
:1005A8000B450B660B860BA60BC50BE30C010C1D4C
:1005B8000C390C550C6F0C890CA30CBB0CD30CEB31
:1005C8000D010D180D2D0D420D560D6A0D7D0D8F67
:1005D8000DA10DB30DC40DD40DE40DF40E030E11D1
:1005E8000E1F0E2D0E3A0E470E540E600E6C0E772F
:1005F8000E820E8C0E960EA00EAA0EB30EBC0EC561
:100608000ECE0ED60EDE0EE60EEE0EF50EFC0F0327
:100618000F0A0F100F160F1C0F220F280F2E0F3462
:100628000F390F3E0F430F480F4D0F520F570F5BF7
:060638000F5F0F640F6864
:0E06CF0090017AEBF0A3EAF0A3E9F0A3EDF0BE
:1006DD00E4900181F0900180F090017DE014FF9095
:1006ED000180E0FEC39F505590017AE0FBA3E0FA34
:1006FD00A3E0F975F002EEA4F58285F0831204876C
:10070D00FF90017EE0FCA3E0FDC39FEC95F040253A
:10071D00A3E02401FFE433FEEF25E0FFEE33FE8F6F
:10072D00828E83120487FFC3ED9FEC95F0500690E7
:10073D000180E0A3F0900180E004F0809C900181A5
:02074D00E0FFCB
:01074F002287
:05002600900176EFF0EF
:10002B00E4900178F0A3F0900177F0900176E0FF77
:10003B0012092A900179E02FF0900178E03EF090C0
:10004B000177E004F0E0C3940A40E0900178E0FE11
:10005B00A3E0FF7C007D0A12041C900178EEF0A354
:10006B00EFF07B017A007900900178E0FFA3E0903C
:0E007B00017ECFF0A3EFF07D791206CF7E005C
:010089002254
:100A9900EF75F0B8A4FF90FEF9E5F0F0A3EFF022AE
:100AA900EF75F0B8A4FF90FEFBE5F0F0A3EFF0229C
:08008A00200AFDD20A8F992221
:080AC300200BFDD20B8F8522F0
:1008C40090019EEBF0A3EAF0A3E9F090019EE0FB17
:1008D400A3E0FAA3E0F9120403601790019EA3E4D5
:1008E40075F001120471A9F0FA120403FF12008AD0
:0308F40080D92286
:1008F7009001A1EBF0A3EAF0A3E9F09001A1E0FBDE
:10090700A3E0FAA3E0F912040360179001A1A3E49E
:1009170075F001120471A9F0FA120403FF120AC359
:0309270080D92252
:080ACB008F85200BFDD20B22E8
:02063E00C10CED
:02064000C10DEA
:060AD3009001A4EFF022E7
:10064F000207AEE493A3F8E493A34003F68001F20C
:10065F0008DFF48029E493A3F85407240CC8C333AC
:10066F00C4540F4420C8834004F456800146F6DF7B
:10067F00E4800B0102040810204080900544E47EC2
:10068F00019360BCA3FF543F30E509541FFEE49370
:10069F00A360010ECF54C025E060A840B8E493A337
:1006AF00FAE493A3F8E493A3C8C582C8CAC583CA62
:1006BF00F0A3C8C582C8CAC583CADFE9DEE780BE1A
:0106420000B7
:10040300BB010689828A83E0225002E722BBFE02F7
:09041300E32289828A83E493222A
:10041C00BC000BBE0029EF8DF084FFADF022E4CCC4
:10042C00F875F008EF2FFFEE33FEEC33FCEE9DEC8D
:10043C00984005FCEE9DFE0FD5F0E9E4CEFD22EDD3
:10044C00F8F5F0EE8420D21CFEADF075F008EF2F1D
:10045C00FFED33FD4007985006D5F0F222C398FD0E
:05046C000FD5F0EA22AB
:10047100A3F8E0C5F025F0F0E5821582700215833E
:06048100E0C838F0E8229B
:10048700BB0110E58229F582E5833AF583E0F5F0B3
:10049700A3E0225009E92582F886F008E622BBFE90
:1004A7000AE92582F8E2F5F008E222E5832AF583D6
:0804B700E993F5F0A3E993229B
:10009E00E5082479F582E43401F583E00508229021
:1000AE000176300703900179E475F0011204FE0227
:1000BE0004032000E97F2ED2008018EF540F249005
:1000CE00D43440D4FF30040BEF24BFB41A005003D5
:1000DE002461FFE50960021509050CE50C700205A7
:1000EE000B30070E900176E475F0011204FEEF025C
:1000FE0004EC020ACB7403D2078003E4C207F508AE
:10010E00900176120515E4F509F50BF50CE509607D
:10011E00077F201200E180F5750AFFC201C200C2FE
:10012E0002C203C205C206C2081200ADFF700D3036
:10013E0007057F001200F2AF0CAE0B22B4255FC292
:10014E00D5C2041200ADFF24D0B40A00501A75F0C7
:10015E000A780930D50508B6FF0106C6A426F62092
:10016E00D5047002D20380D924CFB41A00EF500404
:10017E00C2E5D2040202F3D20180C6D20080C0D200
:10018E000280BCD2D580BAD20580B47F201200E1A5
:10019E002002077401B5090040F112009EFF120003
:1001AE00E102011BD208D206809512009EFB1200BE
:1001BE009EFA12009EF94A4B700679C47A037BFFB1
:1001CE0020022EE509602A7E008E827583001204BD
:1001DE00BF60060EEE650A70F0C2D5EBC0E0EAC055
:1001EE00E0E9C0E0EE12033AD0E0F9D0E0FAD0E058
:1001FE00FB120403FF60AAEBC0E0EAC0E0E9C0E036
:10020E001200E1D0E02401F9D0E03400FAD0E0FB96
:10021E00E50A0460DCD50AD980877BFF7A0379363C
:10022E00D202809C791080027908C206C20880082A
:10023E00D2D5790A8004790AC2D5E50A047002F58E
:10024E000AE4FAFDFEFF12009EFC7B082001131249
:10025E00009EFD7B1030000A12009EFE12009EFFD3
:10026E007B20EC3382D592D55013C3E43000069F29
:10027E00FFE49EFEE42001039DFDE49CFCE4CBF82C
:10028E00C201EC700CCFCECDCCE824F8F870F38020
:10029E0017C3EF33FFEE33FEED33FDEC33FCEB33E0
:1002AE00FB994002FB0FD8E9EB300105F8D0E0C412
:1002BE0048B201C0E00AEC4D4E4F78207B0070C270
:1002CE00EAB50A0040BCC0E012033CD0F0D0E020FA
:1002DE000104C4C0E0C4B201C0F01200CAD0F0D50F
:1002EE00F0EB02011B12051E01B8530232580189B0
:1002FE004C01854202364F023E44023E49019E4366
:08030E000244550228460228B2
:100316004502284703E450018D2D01912E01B42B8F
:1003260001952301B22003CD2A014D48000001ACFE
:100336003F3F3F00790AA2D5200314300509B910C2
:10034600020404B9080104A2D520060250010420C3
:1003560002689202B509005034C0E07F20300319CC
:100366007F30A20272067205500F120393C202C2B8
:1003760006C205C2087F30800F300503E9C0E012CF
:1003860000E1300503D0E0F9D0E0B509CC3005171F
:100396007F30B9100C1200E17F583004077F788057
:1003A60003B908031200E13002057F2D0200E17F48
:1003B600202008F87F2B2006F322920280CF286E99
:1003C600756C6C2900D20112009E3001F8C20178CA
:1003D6000930D50108F602014D2D50434958120047
:1003E6009E2403B405004001E49003DF931200D27B
:0D03F600743A1200D2D203750904020232DB
:1004BF00BB010CE58229F582E5833AF583E02250F2
:1004CF0006E92582F8E622BBFE06E92582F8E2223C
:0D04DF00E58229F582E5833AF583E4932256
:1004EC00BB010689828A83F0225002F722BBFE01EF
:0204FC00F322E9
:1004FE00F8E0FBA3A3E0F925F0F0E5821582700287
:07050E001583E0FA38F0222A
:09051500EBF0A3EAF0A3E9F022E7
:10051E00D083D082F8E4937012740193700DA3A36C
:10052E0093F8740193F5828883E473740293686080
:06053E00EFA3A3A380DF80
:00000001FF
