:03000000020731C3
:0C073100787FE4F6D8FD7581220207787D
:100D430043BC807F0A7E00120D2753DEFC43DE0C7A
:090D530053BCDFC2AD43DE2022D7
:100C6200E4FDFC53BCF0EF240B42BC43BC40E5BCAA
:100C720030E5FB53BCBF53BCDFAFBEAD07AFBDEF2A
:050C8200FCEDAE04FFD3
:010C8700224A
:100D2700D3EF9400EE940040120000007D0B7CBED0
:0B0D3700DCFEDDFCEF1F70E81E80E515
:010D4200228E
:100DB700D3EF9400EE9400400A000000EF1F70F09C
:040DC7001E80ED227B
:0D000E00E4F5C7F5C5F5C675C380F5C4223D
:100CAA0075C78075F50C75C5018FC4EEF5C375C699
:100CBA005A75C6A57F0A7E00120D27AFC202000E22
:100C880075C78075F50C75C5028FC4EEF5C3AF0541
:100C98008FC275C65A75C6A57F0A7E00120D270237
:020CA800000E3C
:100D090075C78075F50C75C5038FC4EEF5C375C637
:0E0D19005A75C6A57F0A7E00120D2702000E35
:100C000075940A759310E4F592F5917596CEF59565
:100C100075B220F5B175B41EF5B375CA01F5C97585
:100C2000CC10F5CB75E220F5E190FE17E04410F012
:010C300022A1
:100CEA003D3D3D3D3D3D3D3D20636F646520737450
:0F0CFA00617274203D3D3D3D3D3D3D3D0D0A0085
:100A830043BA80120C00120D43120D5C120D8B122F
:100A93000DCB120E21120DF11200061209FED2AF78
:100AA3007BFF7A0C79EA1201097F02120E1130FCE6
:0C0AB30002D2FD20FC02C2FDC2A780EDB3
:1009FE0090FEB6E0E4F090FEECF090FEE97470F03C
:100A0E0090FEEC7410F090FEF27404F0A37452F0A9
:100A1E0090FEF0E4F0A37408F090FEF77401F0A3DA
:100A2E00742CF090FEB5E04404F090FEFD7480F05E
:080A3E0090FEE0E04401F0220B
:100DCB00438E805389F0758CCD758AD4C28DD28CAD
:030DDB00D2A92278
:0A0E2100538EBF53890F438910223E
:100DF10053D1FDE4F5D575D4DC43D10843AF2022AE
:05000600D288D2A822FF
:100D5C0053A23F759850438E01438E0475D7E875A6
:080D6C00D6FF438E10D2AC2229
:100DDE0075AC1043AC4043D10275D5E075D4FE43DB
:030DEE00D1082207
:100D8B0075841043844043D12075D3E875D2FF435B
:060D9B00D18043AF1022DD
:10054400C10EC10FC110C189C18AC18BC18CC10D3B
:0905540041000400420002FFF026
:0300230002093996
:10093900C0E0C083C082C0D075D000C00730992202
:10094900C299C20F900000E06018A3E0FF04F074A0
:10095900872FF582E43400F583E0F599900000E0F3
:1009690014F030982FC298200D21900004E0D39400
:10097900804002E4F0900004E02407F582E43400AA
:10098900F583E599F0900004E004F0900005E4F0A7
:0F099900A37496F0D007D0D0D082D083D0E032B4
:03000B00020A46A0
:100A4600C0E0C083C082C0D0900005E07002A3E081
:100A56006022900006E024FFF0900005E034FFF0ED
:100A6600E07002A3E0700D900004E0D3940040040F
:0D0A7600D20DE4F0D0D0D082D083D0E03299
:03009300020D74E7
:100D7400C0E0E58430E0035384FEE58430E10553AC
:070D840084FDC210D0E03233
:03000300020B9C51
:100B9C00C0E0C083C082C0D075D000C006D2C4D221
:100BAC00C3D2C2D2C1900002E0FEA3E0F58BEEF5F9
:100BBC008DD20ED28ED2ABD006D0D0D082D083D0F4
:020BCC00E03215
:03001B00020BCE07
:100BCE00C0D0300E1EA209B392C1A20AB392C2A225
:100BDE000BB392C3A20CB392C4C20E758BF7758D74
:100BEE00FF800CD2C4D2C3D2C2D2C1C28EC2ABD08D
:020BFE00D032F3
:03009B0002001E42
:01001E0032AF
:10055D0060F2010703D403F9041F0445046C0494ED
:10056D0004BD04E6050F05390564058F05BA05E6DA
:10057D000612063E066B069806C506F2071F074CC7
:10058D00077907A607D30800082C0858088408B077
:10059D0008DB09060930095A098309AC09D509FC9C
:1005AD000A230A4A0A700A950ABA0ADD0B010B23BF
:1005BD000B450B660B860BA60BC50BE30C010C1D37
:1005CD000C390C550C6F0C890CA30CBB0CD30CEB1C
:1005DD000D010D180D2D0D420D560D6A0D7D0D8F52
:1005ED000DA10DB30DC40DD40DE40DF40E030E11BC
:1005FD000E1F0E2D0E3A0E470E540E600E6C0E771A
:10060D000E820E8C0E960EA00EAA0EB30EBC0EC54B
:10061D000ECE0ED60EDE0EE60EEE0EF50EFC0F0312
:10062D000F0A0F100F160F1C0F220F280F2E0F344D
:10063D000F390F3E0F430F480F4D0F520F570F5BE2
:06064D000F5F0F640F684F
:0E084800900256EBF0A3EAF0A3E9F0A3EDF066
:10085600E490025DF090025CF0900259E014FF9083
:10086600025CE0FEC39F5055900256E0FBA3E0FAFF
:10087600A3E0F975F002EEA4F58285F083120487F1
:10088600FF90025AE0FCA3E0FDC39FEC95F04025E3
:10089600A3E02401FFE433FEEF25E0FFEE33FE8FF5
:1008A600828E83120487FFC3ED9FEC95F05006906D
:1008B600025CE0A3F090025CE004F0809C90025D94
:0208C600E0FF51
:0108C800220D
:0500260090025EEFF006
:10002B00E4900260F0A3F090025FF090025EE0FFBC
:10003B00120C62900261E02FF0900260E03EF090B3
:10004B00025FE004F0E0C3940A40E0900260E0FE3F
:10005B00A3E0FF7C007D0A12041C900260EEF0A36B
:10006B00EFF07B017A017907900260E0FFA3E0904B
:0E007B00025ACFF0A3EFF07D791208487E0004
:010089002254
:100E0100EF75F0B8A4FF90FEF9E5F0F0A3EFF02242
:100E1100EF75F0B8A4FF90FEF7E5F0F0A3EFF02234
:08008A00200FFDD20F8F992217
:080E2B002010FDD2108F85227A
:100B3600900266EBF0A3EAF0A3E9F0900266E0FB10
:100B4600A3E0FAA3E0F91204036017900266A3E497
:100B560075F001120471A9F0FA120403FF12008A5B
:030B660080D92211
:100B6900900269EBF0A3EAF0A3E9F0900269E0FBD7
:100B7900A3E0FAA3E0F91204036017900269A3E461
:100B890075F001120471A9F0FA120403FF120E2B79
:030B990080D922DE
:080E33008F993099FDC299224C
:02065300C111D3
:100AFB00301137E4FFFE120D09900262E0FDE4FFB6
:100B0B00FE120C88900263E0FD7F027E00120C88BF
:100B1B00900264E0FD7F047E00120C88900265E079
:0B0B2B00FD7F067E00120C88C2112224
:100C3100E490026EF0FFFE120CAA900262EFF0E463
:100C4100FFFE120CAA900263EFF0E4FFFE120CAA61
:100C5100900264EFF0E4FFFE120CAA900265EFF03F
:010C61002270
:02065500C112D0
:02065700C113CD
:1008C90074302E7478743D22436F6E6E656374695B
:1008D9006E672E2E2E220074302E7478743D2243BA
:1008E9006F6E6E656374656422006E302E76616C7E
:1008F9003D2564006E312E76616C3D2564006E32B3
:100909002E76616C3D2564006E332E76616C3D2533
:1009190064006765744672616D65466C6167313D57
:100929003100746D302E656E3D31002573256400EC
:0406590041026F00EB
:100ABF00300D38C20D900007E0B4512FA3E0245F32
:100ACF006007243E70250207BD900009E090026286
:100ADF00F090000AE0900263F090000BE090026447
:0C0AEF00F090000CE0900265F0D21122A3
:1007BD00900009E0B4CA0C7BFF7A0879C9120B3698
:1007CD00120DA1900009E064CB70427BFF7A08798D
:1007DD00E0120B36120DA17A0879F390026212091C
:1007ED00A87A0879FD9002631209A87BFF7A09792E
:1007FD0007900264E0FD1209AC7BFF7A0979119034
:10080D000265E0FD1209AC90026F7401F090026F69
:10081D00E0B40126900009E0B4CC0790026F740299
:10082D00F0227BFF7A09791B120B36120DA17BFF8B
:0B083D007A09792B120B36120DA12254
:0409A8007BFFE0FDF4
:0B09AC009001F9EBF0A3EAF0A3E9F0E2
:1009B70090023174FFF0A37409F0A37434F090012E
:1009C700F9E0F9A3E0FAA3E0900234C9F0A3EAF052
:1009D700A3E9F0AF05A3E4F0A3EFF07B017A017977
:1009E700FC1201037B017A0179FC120B36120DA16F
:0709F7007F787E00020D274E
:100DA1007FFF12008A7FFF12008A7FFF12008A7F75
:060DB100787E00020D2710
:100CCA006E342E76616C3D006E352E76616C3D0079
:100CDA006E362E76616C3D006E372E76616C3D0065
:10065D0041026250410263504102645041026550B3
:10066E0090026C7401F090026CE0FFC3940540039D
:10067E0002073012002690026DEFF090026CE0B48B
:10068E0001217BFF7A0C79CAA3E0FD1209AC90021E
:10069E0062E0FF90026DE0C39F5004D209807AC2DF
:1006AE0009807690026CE0B402217BFF7A0C79D23D
:1006BE00A3E0FD1209AC900263E0FF90026DE0C36F
:1006CE009F5004D20A8052C20A804E90026CE0B44F
:1006DE0003217BFF7A0C79DAA3E0FD1209AC9002BC
:1006EE0064E0FF90026DE0C39F5004D20B802AC2DB
:1006FE000B802690026CE0B4041F7BFF7A0C79E22B
:10070E00A3E0FD1209AC900265E0FF90026DE0C31C
:10071E009F5004D20C8002C20C90026CE004F002D6
:02072E0006744F
:0107300022A6
:10073D00020A83E493A3F8E493A34003F68001F245
:10074D0008DFF48029E493A3F85407240CC8C333BD
:10075D00C4540F4420C8834004F456800146F6DF8C
:10076D00E4800B0102040810204080900544E47ED3
:10077D00019360BCA3FF543F30E509541FFEE49381
:10078D00A360010ECF54C025E060A840B8E493A348
:10079D00FAE493A3F8E493A3C8C582C8CAC583CA73
:1007AD00F0A3C8C582C8CAC583CADFE9DEE780BE2B
:01066D00008C
:10040300BB010689828A83E0225002E722BBFE02F7
:09041300E32289828A83E493222A
:10041C00BC000BBE0029EF8DF084FFADF022E4CCC4
:10042C00F875F008EF2FFFEE33FEEC33FCEE9DEC8D
:10043C00984005FCEE9DFE0FD5F0E9E4CEFD22EDD3
:10044C00F8F5F0EE8420D21CFEADF075F008EF2F1D
:10045C00FFED33FD4007985006D5F0F222C398FD0E
:05046C000FD5F0EA22AB
:10047100A3F8E0C5F025F0F0E5821582700215833E
:06048100E0C838F0E8229B
:10048700BB0110E58229F582E5833AF583E0F5F0B3
:10049700A3E0225009E92582F886F008E622BBFE90
:1004A7000AE92582F8E2F5F008E222E5832AF583D6
:0804B700E993F5F0A3E993229B
:10009E00E5082431F582E43402F583E00508229068
:1000AE00022E300703900231E475F0011204FE02B5
:1000BE0004032000E97F2ED2008018EF540F249005
:1000CE00D43440D4FF30040BEF24BFB41A005003D5
:1000DE002461FFE50960021509050CE50C700205A7
:1000EE000B30070E90022EE475F0011204FEEF02A3
:1000FE0004EC020E337403D2078003E4C207F50842
:10010E0090022E120515E4F509F50BF50CE50960C4
:10011E00077F201200E180F5750AFFC201C200C2FE
:10012E0002C203C205C206C2081200ADFF700D3036
:10013E0007057F001200F2AF0CAE0B22B4255FC292
:10014E00D5C2041200ADFF24D0B40A00501A75F0C7
:10015E000A780930D50508B6FF0106C6A426F62092
:10016E00D5047002D20380D924CFB41A00EF500404
:10017E00C2E5D2040202F3D20180C6D20080C0D200
:10018E000280BCD2D580BAD20580B47F201200E1A5
:10019E002002077401B5090040F112009EFF120003
:1001AE00E102011BD208D206809512009EFB1200BE
:1001BE009EFA12009EF94A4B700679C47A037BFFB1
:1001CE0020022EE509602A7E008E827583001204BD
:1001DE00BF60060EEE650A70F0C2D5EBC0E0EAC055
:1001EE00E0E9C0E0EE12033AD0E0F9D0E0FAD0E058
:1001FE00FB120403FF60AAEBC0E0EAC0E0E9C0E036
:10020E001200E1D0E02401F9D0E03400FAD0E0FB96
:10021E00E50A0460DCD50AD980877BFF7A0379363C
:10022E00D202809C791080027908C206C20880082A
:10023E00D2D5790A8004790AC2D5E50A047002F58E
:10024E000AE4FAFDFEFF12009EFC7B082001131249
:10025E00009EFD7B1030000A12009EFE12009EFFD3
:10026E007B20EC3382D592D55013C3E43000069F29
:10027E00FFE49EFEE42001039DFDE49CFCE4CBF82C
:10028E00C201EC700CCFCECDCCE824F8F870F38020
:10029E0017C3EF33FFEE33FEED33FDEC33FCEB33E0
:1002AE00FB994002FB0FD8E9EB300105F8D0E0C412
:1002BE0048B201C0E00AEC4D4E4F78207B0070C270
:1002CE00EAB50A0040BCC0E012033CD0F0D0E020FA
:1002DE000104C4C0E0C4B201C0F01200CAD0F0D50F
:1002EE00F0EB02011B12051E01B8530232580189B0
:1002FE004C01854202364F023E44023E49019E4366
:08030E000244550228460228B2
:100316004502284703E450018D2D01912E01B42B8F
:1003260001952301B22003CD2A014D48000001ACFE
:100336003F3F3F00790AA2D5200314300509B910C2
:10034600020404B9080104A2D520060250010420C3
:1003560002689202B509005034C0E07F20300319CC
:100366007F30A20272067205500F120393C202C2B8
:1003760006C205C2087F30800F300503E9C0E012CF
:1003860000E1300503D0E0F9D0E0B509CC3005171F
:100396007F30B9100C1200E17F583004077F788057
:1003A60003B908031200E13002057F2D0200E17F48
:1003B600202008F87F2B2006F322920280CF286E99
:1003C600756C6C2900D20112009E3001F8C20178CA
:1003D6000930D50108F602014D2D50434958120047
:1003E6009E2403B405004001E49003DF931200D27B
:0D03F600743A1200D2D203750904020232DB
:1004BF00BB010CE58229F582E5833AF583E02250F2
:1004CF0006E92582F8E622BBFE06E92582F8E2223C
:0D04DF00E58229F582E5833AF583E4932256
:1004EC00BB010689828A83F0225002F722BBFE01EF
:0204FC00F322E9
:1004FE00F8E0FBA3A3E0F925F0F0E5821582700287
:07050E001583E0FA38F0222A
:09051500EBF0A3EAF0A3E9F022E7
:10051E00D083D082F8E4937012740193700DA3A36C
:10052E0093F8740193F5828883E473740293686080
:06053E00EFA3A3A380DF80
:00000001FF
