:030000000207E212
:0C07E200787FE4F6D8FD7581220208291A
:100E180043BC807F0A7E00120DFC53DEFC43DE0CCF
:090E280053BCDFC2AD43DE202201
:100D3700E4FDFC53BCF0EF240B42BC43BC40E5BCD4
:100D470030E5FB53BCBF53BCDFAFBEAD07AFBDEF54
:050D5700FCEDAE04FFFD
:010D5C002274
:100DFC00D3EF9400EE940040120000007D0B7CBEFB
:0B0E0C00DCFEDDFCEF1F70E81E80E53F
:010E170022B8
:100E8C00D3EF9400EE9400400A000000EF1F70F0C6
:040E9C001E80ED22A5
:0D000E00E4F5C7F5C5F5C675C380F5C4223D
:100D7F0075C78075F50C75C5018FC4EEF5C375C6C3
:100D8F005A75C6A57F0A7E00120DFCAFC202000E77
:100D5D0075C78075F50C75C5028FC4EEF5C3AF056B
:100D6D008FC275C65A75C6A57F0A7E00120DFC028C
:020D7D00000E66
:100DDE0075C78075F50C75C5038FC4EEF5C375C662
:0E0DEE005A75C6A57F0A7E00120DFC02000E8B
:100C0E0075948A759370E4F592F5917596CFF59576
:100C1E0075B222F5B175B41EF5B375CA01F5C97575
:100C2E00CC10F5CB75E260F5E190FE117430F090CA
:070C3E00FE17E04410F02254
:100DBF003D3D3D3D3D3D3D3D20636F64652073747A
:0F0DCF00617274203D3D3D3D3D3D3D3D0D0A00AF
:100B130043BA80120C0E120E18120E31120EB312BB
:100B23000E60120EA0120ED6120EC612000612008E
:100B330026120CABD2AF7BFF7A0D79BF120109D21B
:100B4300877FF47E01120E8CC2877FF47E01120E22
:030B53008C80ECA7
:1000260043BA8090FEB6E0F090FEECE4F0A3F090C8
:10003600FEE87470F0A3F0A3F0A3F0A37411F0A38C
:10004600F090FEF27404F0A37452F090FEF0E4F027
:10005600A37408F090FEF57401F0A3742CF0A37459
:1000660001F0A3742CF0A37401F0A3742CF0A37414
:1000760001F0A3742CF090FEB5E04455F090FEFD1F
:0B0086007480F090FEE0E04401F022E6
:100EA000438E805389F0758CCD758AD4C28DD28CD7
:030EB000D2A922A2
:0A0ED600538EBF53890F4389102289
:100EC60053D1FDE4F5D575D4DC43D10843AF2022D8
:05000600D288D2A822FF
:100E310053A23F759850438E01438E0475D7E875D0
:080E4100D6FF438E10D2AC2253
:100EB30075AC1043AC4043D10275D5E075D4FE4305
:030EC300D1082231
:100E600075841043844043D12075D3E875D2FF4385
:060E7000D18043AF102207
:10054400C10EC10FC110C189C18AC18BC18CC10D3B
:0905540041000400420002FFF026
:030023000209EAE5
:1009EA00C0E0C083C082C0D075D000C00730992251
:1009FA00C299C20F900000E06018A3E0FF04F074EF
:100A0A00872FF582E43400F583E0F599900000E041
:100A1A0014F030982FC298200D21900004E0D3944E
:100A2A00804002E4F0900004E02407F582E43400F8
:100A3A00F583E599F0900004E004F0900005E4F0F5
:0F0A4A00A37496F0D007D0D0D082D083D0E03202
:03000B00020B964F
:100B9600C0E0C083C082C0D0900005E07002A3E030
:100BA6006022900006E024FFF0900005E034FFF09C
:100BB600E07002A3E0700D900004E0D394004004BE
:0D0BC600D20DE4F0D0D0D082D083D0E03248
:03009300020E4911
:100E4900C0E0E58430E0035384FEE58430E10553D6
:070E590084FDC210D0E0325D
:03000300020CDC10
:100CDC00C0E0C083C082C0D075D000C006D2C3D2E1
:100CEC00C2D2C1900002E0FEA3E0F58BEEF58DD2EE
:100CFC000ED28ED2ABD006D0D0D082D083D0E03200
:03001B00020D0CC7
:100D0C00C0D0300E19A209B392C1A20AB392C2A2EA
:100D1C000BB392C3C20E758BF7758DFF800AD2C3CD
:0B0D2C00D2C2D2C1C28EC2ABD0D03206
:03009B0002001E42
:01001E0032AF
:10055D0060F2010703D403F9041F0445046C0494ED
:10056D0004BD04E6050F05390564058F05BA05E6DA
:10057D000612063E066B069806C506F2071F074CC7
:10058D00077907A607D30800082C0858088408B077
:10059D0008DB09060930095A098309AC09D509FC9C
:1005AD000A230A4A0A700A950ABA0ADD0B010B23BF
:1005BD000B450B660B860BA60BC50BE30C010C1D37
:1005CD000C390C550C6F0C890CA30CBB0CD30CEB1C
:1005DD000D010D180D2D0D420D560D6A0D7D0D8F52
:1005ED000DA10DB30DC40DD40DE40DF40E030E11BC
:1005FD000E1F0E2D0E3A0E470E540E600E6C0E771A
:10060D000E820E8C0E960EA00EAA0EB30EBC0EC54B
:10061D000ECE0ED60EDE0EE60EEE0EF50EFC0F0312
:10062D000F0A0F100F160F1C0F220F280F2E0F344D
:10063D000F390F3E0F430F480F4D0F520F570F5BE2
:06064D000F5F0F640F684F
:0E08F900900256EBF0A3EAF0A3E9F0A3EDF0B5
:10090700E490025DF090025CF0900259E014FF90D1
:10091700025CE0FEC39F5055900256E0FBA3E0FA4D
:10092700A3E0F975F002EEA4F58285F0831204873F
:10093700FF90025AE0FCA3E0FDC39FEC95F0402531
:10094700A3E02401FFE433FEEF25E0FFEE33FE8F43
:10095700828E83120487FFC3ED9FEC95F0500690BB
:10096700025CE0A3F090025CE004F0809C90025DE2
:02097700E0FF9F
:01097900225B
:050A590090025EEFF0C9
:100A5E00E4900260F0A3F090025FF090025EE0FF7F
:100A6E00120D37900261E02FF0900260E03EF090A0
:100A7E00025FE004F0E0C3940A40E0900260E0FE02
:100A8E00A3E0FF7C007D0A12041C900260EEF0A32E
:100A9E00EFF07B017A017907900260E0FFA3E0900E
:0E0AAE00025ACFF0A3EFF07D791208F97E0016
:010ABC002217
:100B5600EF24FA601514601D14602524037030ED2F
:100B660075F0B8A4FF90FEF5801FED75F0B8A4FFF0
:100B760090FEF78014ED75F0B8A4FF90FEF9800999
:100B8600ED75F0B8A4FF90FEFBE5F0F0A3EFF022C0
:080EE000200FFDD20F8F9922B3
:080EE8002010FDD2108F8522BD
:100C4500900266EBF0A3EAF0A3E9F0900266E0FB00
:100C5500A3E0FAA3E0F91204036017900266A3E487
:100C650075F001120471A9F0FA120403FF120EE0E7
:030C750080D92201
:100C7800900269EBF0A3EAF0A3E9F0900269E0FBC7
:100C8800A3E0FAA3E0F91204036017900269A3E451
:100C980075F001120471A9F0FA120403FF120EE8AC
:030CA80080D922CE
:080EF0008F993099FDC299228F
:02065300C111D3
:100BD300301137E4FFFE120DDE900262E0FDE4FF08
:100BE300FE120D5D900263E0FD7F027E00120D5D3B
:100BF300900264E0FD7F047E00120D5D900265E0CB
:0B0C0300FD7F067E00120D5DC2112275
:100CAB00E490022EF0FFFE120D7F900262EFF0E453
:100CBB00FFFE120D7F900263EFF0E4FFFE120D7F3B
:100CCB00900264EFF0E4FFFE120D7F900265EFF0EF
:010CDB0022F6
:02065500C112D0
:02065700C113CD
:060EF800120B56D211227C
:10097A0074302E7478743D22436F6E6E65637469A9
:10098A006E672E2E2E220074302E7478743D224308
:10099A006F6E6E656374656422006E302E76616CCC
:1009AA003D2564006E312E76616C3D2564006E3201
:1009BA002E76616C3D2564006E332E76616C3D2582
:1009CA0064006765744672616D65466C6167313DA6
:1009DA003100746D302E656E3D310025732564003B
:0406590041026E00EC
:10073100200D030207E1C20D900007E06451600340
:100741000207E1A3E0249D602A24C2B4060040030D
:100751000207E190076275F003A4C58325F0C58304
:100761007302077702079A0207A30207B70207C0BD
:100771000207C902086E900009E0900262F0900041
:100781000AE0900263F090000BE0900264F09000A8
:100791000CE0900265F0D21122900009E024FF9252
:1007A100FD22900009E0FD7F07120EF8900009E09C
:1007B100FD7F08020EF8900009E024FF92A6229026
:1007C1000009E024FF92A722900009E0B40109D2B8
:1007D1000CD20BD20AD20922C20CC20BC20AC20924
:0107E10022F5
:10086E00900009E0B4CA0C7BFF7A09797A120C4524
:10087E00120E76900009E064CB70427BFF7A097904
:10088E0091120C45120E767A0979A4900262120A20
:10089E00BD7A0979AE900263120ABD7BFF7A09799F
:1008AE00B8900264E0FD120AC17BFF7A0979C2900A
:1008BE000265E0FD120AC190026E7401F090026EA4
:1008CE00E0B40126900009E0B4CC0790026E7402E9
:1008DE00F0227BFF7A0979CC120C45120E767BFF43
:0B08EE007A0979DC120C45120E76220C
:040ABD007BFFE0FDDE
:0B0AC1009001F9EBF0A3EAF0A3E9F0CC
:100ACC0090023174FFF0A37409F0A374E5F0900167
:100ADC00F9E0F9A3E0FAA3E0900234C9F0A3EAF03C
:100AEC00A3E9F0AF05A3E4F0A3EFF07B017A017961
:100AFC00FC1201037B017A0179FC120C45120E7673
:070B0C007F787E00020DFC62
:100E76007FFF120EE07FFF120EE07FFF120EE07F73
:060E8600787E00020DFC65
:100D9F006E342E76616C3D006E352E76616C3D00A3
:100DAF006E362E76616C3D006E372E76616C3D008F
:10065D0041026250410263504102645041026550B3
:10066E0090026C7401F090026CE0FFC3940440039E
:10067E00020730120A5990026DEFF090026CE0B44E
:10068E0001217BFF7A0D799FA3E0FD120AC1900232
:10069E0062E0FF90026DE0C39F5004D209807AC2DF
:1006AE0009807690026CE0B402217BFF7A0D79A767
:1006BE00A3E0FD120AC1900263E0FF90026DE0C359
:1006CE009F5004D20A8052C20A804E90026CE0B44F
:1006DE0003217BFF7A0D79AFA3E0FD120AC19002D0
:1006EE0064E0FF90026DE0C39F5004D20B802AC2DB
:1006FE000B802690026CE0B4041F7BFF7A0D79B755
:10070E00A3E0FD120AC1900265E0FF90026DE0C306
:10071E009F5004D20C8002C20C90026CE004F002D6
:02072E0006744F
:0107300022A6
:1007EE00020B13E493A3F8E493A34003F68001F203
:1007FE0008DFF48029E493A3F85407240CC8C3330C
:10080E00C4540F4420C8834004F456800146F6DFDA
:10081E00E4800B0102040810204080900544E47E21
:10082E00019360BCA3FF543F30E509541FFEE493CF
:10083E00A360010ECF54C025E060A840B8E493A396
:10084E00FAE493A3F8E493A3C8C582C8CAC583CAC1
:10085E00F0A3C8C582C8CAC583CADFE9DEE780BE79
:01066D00008C
:10040300BB010689828A83E0225002E722BBFE02F7
:09041300E32289828A83E493222A
:10041C00BC000BBE0029EF8DF084FFADF022E4CCC4
:10042C00F875F008EF2FFFEE33FEEC33FCEE9DEC8D
:10043C00984005FCEE9DFE0FD5F0E9E4CEFD22EDD3
:10044C00F8F5F0EE8420D21CFEADF075F008EF2F1D
:10045C00FFED33FD4007985006D5F0F222C398FD0E
:05046C000FD5F0EA22AB
:10047100A3F8E0C5F025F0F0E5821582700215833E
:06048100E0C838F0E8229B
:10048700BB0110E58229F582E5833AF583E0F5F0B3
:10049700A3E0225009E92582F886F008E622BBFE90
:1004A7000AE92582F8E2F5F008E222E5832AF583D6
:0804B700E993F5F0A3E993229B
:10009E00E5082431F582E43402F583E00508229068
:1000AE00022E300703900231E475F0011204FE02B5
:1000BE0004032000E97F2ED2008018EF540F249005
:1000CE00D43440D4FF30040BEF24BFB41A005003D5
:1000DE002461FFE50960021509050CE50C700205A7
:1000EE000B30070E90022EE475F0011204FEEF02A3
:1000FE0004EC020EF07403D2078003E4C207F50885
:10010E0090022E120515E4F509F50BF50CE50960C4
:10011E00077F201200E180F5750AFFC201C200C2FE
:10012E0002C203C205C206C2081200ADFF700D3036
:10013E0007057F001200F2AF0CAE0B22B4255FC292
:10014E00D5C2041200ADFF24D0B40A00501A75F0C7
:10015E000A780930D50508B6FF0106C6A426F62092
:10016E00D5047002D20380D924CFB41A00EF500404
:10017E00C2E5D2040202F3D20180C6D20080C0D200
:10018E000280BCD2D580BAD20580B47F201200E1A5
:10019E002002077401B5090040F112009EFF120003
:1001AE00E102011BD208D206809512009EFB1200BE
:1001BE009EFA12009EF94A4B700679C47A037BFFB1
:1001CE0020022EE509602A7E008E827583001204BD
:1001DE00BF60060EEE650A70F0C2D5EBC0E0EAC055
:1001EE00E0E9C0E0EE12033AD0E0F9D0E0FAD0E058
:1001FE00FB120403FF60AAEBC0E0EAC0E0E9C0E036
:10020E001200E1D0E02401F9D0E03400FAD0E0FB96
:10021E00E50A0460DCD50AD980877BFF7A0379363C
:10022E00D202809C791080027908C206C20880082A
:10023E00D2D5790A8004790AC2D5E50A047002F58E
:10024E000AE4FAFDFEFF12009EFC7B082001131249
:10025E00009EFD7B1030000A12009EFE12009EFFD3
:10026E007B20EC3382D592D55013C3E43000069F29
:10027E00FFE49EFEE42001039DFDE49CFCE4CBF82C
:10028E00C201EC700CCFCECDCCE824F8F870F38020
:10029E0017C3EF33FFEE33FEED33FDEC33FCEB33E0
:1002AE00FB994002FB0FD8E9EB300105F8D0E0C412
:1002BE0048B201C0E00AEC4D4E4F78207B0070C270
:1002CE00EAB50A0040BCC0E012033CD0F0D0E020FA
:1002DE000104C4C0E0C4B201C0F01200CAD0F0D50F
:1002EE00F0EB02011B12051E01B8530232580189B0
:1002FE004C01854202364F023E44023E49019E4366
:08030E000244550228460228B2
:100316004502284703E450018D2D01912E01B42B8F
:1003260001952301B22003CD2A014D48000001ACFE
:100336003F3F3F00790AA2D5200314300509B910C2
:10034600020404B9080104A2D520060250010420C3
:1003560002689202B509005034C0E07F20300319CC
:100366007F30A20272067205500F120393C202C2B8
:1003760006C205C2087F30800F300503E9C0E012CF
:1003860000E1300503D0E0F9D0E0B509CC3005171F
:100396007F30B9100C1200E17F583004077F788057
:1003A60003B908031200E13002057F2D0200E17F48
:1003B600202008F87F2B2006F322920280CF286E99
:1003C600756C6C2900D20112009E3001F8C20178CA
:1003D6000930D50108F602014D2D50434958120047
:1003E6009E2403B405004001E49003DF931200D27B
:0D03F600743A1200D2D203750904020232DB
:1004BF00BB010CE58229F582E5833AF583E02250F2
:1004CF0006E92582F8E622BBFE06E92582F8E2223C
:0D04DF00E58229F582E5833AF583E4932256
:1004EC00BB010689828A83F0225002F722BBFE01EF
:0204FC00F322E9
:1004FE00F8E0FBA3A3E0F925F0F0E5821582700287
:07050E001583E0FA38F0222A
:09051500EBF0A3EAF0A3E9F022E7
:10051E00D083D082F8E4937012740193700DA3A36C
:10052E0093F8740193F5828883E473740293686080
:06053E00EFA3A3A380DF80
:00000001FF
