:03000000020731C3
:0C073100787FE4F6D8FD7581220207787D
:100D910043BC807F0A7E00120D7553DEFC43DE0CDE
:090DA10053BCDFC2AD43DE202289
:100CB000E4FDFC53BCF0EF240B42BC43BC40E5BC5C
:100CC00030E5FB53BCBF53BCDFAFBEAD07AFBDEFDC
:050CD000FCEDAE04FF85
:010CD50022FC
:100D7500D3EF9400EE940040120000007D0B7CBE82
:0B0D8500DCFEDDFCEF1F70E81E80E5C7
:010D90002240
:100E0500D3EF9400EE9400400A000000EF1F70F04D
:040E15001E80ED222C
:0D000E00E4F5C7F5C5F5C675C380F5C4223D
:100CF80075C78075F50C75C5018FC4EEF5C375C64B
:100D08005A75C6A57F0A7E00120D75AFC202000E85
:100CD60075C78075F50C75C5028FC4EEF5C3AF05F3
:100CE6008FC275C65A75C6A57F0A7E00120D75029B
:020CF600000EEE
:100D570075C78075F50C75C5038FC4EEF5C375C6E9
:0E0D67005A75C6A57F0A7E00120D7502000E99
:100C4E0075940A759310E4F592F5917596CEF59517
:100C5E0075B220F5B175B41EF5B375CA01F5C97537
:100C6E00CC10F5CB75E220F5E190FE17E04410F0C4
:010C7E002253
:100D38003D3D3D3D3D3D3D3D20636F646520737401
:0F0D4800617274203D3D3D3D3D3D3D3D0D0A0036
:100A480043BA80120C4E120D91120DAA120E2C12DE
:100A58000DD9120E19120E4F120E3F12000612096E
:100A6800FE120C7FD2AF7BFF7A0D79381201091282
:100A78000B0D7D027F05120E697FE87E03120E05BD
:080A880012066E120B4980E713
:1009FE0090FEB6E0543FF090FEEDE4F090FEEB7406
:100A0E0070F090FEED7410F090FEF27404F0A3748A
:100A1E0052F090FEF0E4F0A37408F090FEFB740127
:100A2E00F0A3742CF090FEB5E04440F090FEFD74FF
:0A0A3E0080F090FEE0E04401F02299
:100E1900438E805389F0758CCD758AD4C28DD28C5E
:030E2900D2A92229
:0A0E4F00538EBF53890F4389102210
:100E3F0053D1FDE4F5D575D4DC43D10843AF20225F
:05000600D288D2A822FF
:100DAA0053A23F759850438E01438E0475D7E87558
:080DBA00D6FF438E10D2AC22DB
:100E2C0075AC1043AC4043D10275D5E075D4FE438C
:030E3C00D10822B8
:100DD90075841043844043D12075D3E875D2FF430D
:060DE900D18043AF10228F
:10054400C10EC10FC110C189C18AC18BC18CC10D3B
:0905540041000400420002FFF026
:0300230002093996
:10093900C0E0C083C082C0D075D000C00730992202
:10094900C299C20F900000E06018A3E0FF04F074A0
:10095900872FF582E43400F583E0F599900000E0F3
:1009690014F030982FC298200D21900004E0D39400
:10097900804002E4F0900004E02407F582E43400AA
:10098900F583E599F0900004E004F0900005E4F0A7
:0F099900A37496F0D007D0D0D082D083D0E032B4
:03000B00020AD016
:100AD000C0E0C083C082C0D0900005E07002A3E0F7
:100AE0006022900006E024FFF0900005E034FFF063
:100AF000E07002A3E0700D900004E0D39400400485
:0D0B0000D20DE4F0D0D0D082D083D0E0320E
:03009300020DC299
:100DC200C0E0E58430E0035384FEE58430E105535E
:070DD20084FDC210D0E032E5
:03000300020BEA03
:100BEA00C0E0C083C082C0D075D000C006D2C4D2D3
:100BFA00C3D2C2D2C1900002E0FEA3E0F58BEEF5AB
:100C0A008DD20ED28ED2ABD006D0D0D082D083D0A5
:020C1A00E032C6
:03001B00020C1CB8
:100C1C00C0D0300E1EA209B392C1A20AB392C2A2D6
:100C2C000BB392C3A20CB392C4C20E758BF7758D25
:100C3C00FF800CD2C4D2C3D2C2D2C1C28EC2ABD03E
:020C4C00D032A4
:03009B0002001E42
:01001E0032AF
:10055D0060F2010703D403F9041F0445046C0494ED
:10056D0004BD04E6050F05390564058F05BA05E6DA
:10057D000612063E066B069806C506F2071F074CC7
:10058D00077907A607D30800082C0858088408B077
:10059D0008DB09060930095A098309AC09D509FC9C
:1005AD000A230A4A0A700A950ABA0ADD0B010B23BF
:1005BD000B450B660B860BA60BC50BE30C010C1D37
:1005CD000C390C550C6F0C890CA30CBB0CD30CEB1C
:1005DD000D010D180D2D0D420D560D6A0D7D0D8F52
:1005ED000DA10DB30DC40DD40DE40DF40E030E11BC
:1005FD000E1F0E2D0E3A0E470E540E600E6C0E771A
:10060D000E820E8C0E960EA00EAA0EB30EBC0EC54B
:10061D000ECE0ED60EDE0EE60EEE0EF50EFC0F0312
:10062D000F0A0F100F160F1C0F220F280F2E0F344D
:10063D000F390F3E0F430F480F4D0F520F570F5BE2
:06064D000F5F0F640F684F
:0E0848009001FFEBF0A3EAF0A3E9F0A3EDF0BE
:10085600E4900206F0900205F0900202E014FF9088
:100866000205E0FEC39F50559001FFE0FBA3E0FAAE
:10087600A3E0F975F002EEA4F58285F083120487F1
:10088600FF900203E0FCA3E0FDC39FEC95F040253A
:10089600A3E02401FFE433FEEF25E0FFEE33FE8FF5
:1008A600828E83120487FFC3ED9FEC95F05006906D
:1008B6000205E0A3F0900205E004F0809C90020699
:0208C600E0FF51
:0108C800220D
:050026009001FBEFF06A
:10002B00E49001FDF0A3F09001FCF09001FBE0FFE8
:10003B00120CB09001FEE02FF09001FDE03EF0902D
:10004B0001FCE004F0E0C3940A40E09001FDE0FE07
:10005B00A3E0FF7C007D0A12041C9001FDEEF0A3CF
:10006B00EFF07B017A0179079001FDE0FFA3E090AF
:0E007B000203CFF0A3EFF07D791208487E005B
:010089002254
:100A9000EF24FA601514601D14602524037030EDF6
:100AA00075F0B8A4FF90FEF5801FED75F0B8A4FFB7
:100AB00090FEF78014ED75F0B8A4FF90FEF9800960
:100AC000ED75F0B8A4FF90FEFBE5F0F0A3EFF02287
:08008A00200FFDD20F8F992217
:080E59002010FDD2108F85224C
:100B8400900230EBF0A3EAF0A3E9F0900230E0FB2E
:100B9400A3E0FAA3E0F91204036017900230A3E47F
:100BA40075F001120471A9F0FA120403FF12008A0D
:030BB40080D922C3
:100BB70090025CEBF0A3EAF0A3E9F090025CE0FBA3
:100BC700A3E0FAA3E0F9120403601790025CA3E420
:100BD70075F001120471A9F0FA120403FF120E59FD
:030BE70080D92290
:080E61008F993099FDC299221E
:02065300C111D3
:100B4900301137E4FFFE120D57900258E0FDE4FF23
:100B5900FE120CD6900259E0FD7F027E00120CD6DF
:100B690090025AE0FD7F047E00120CD690025BE0F1
:0B0B7900FD7F067E00120CD6C2112288
:100C7F00E49001F9F0FFFE120CF8900258EFF0E447
:100C8F00FFFE120CF8900259EFF0E4FFFE120CF881
:100C9F0090025AEFF0E4FFFE120CF890025BEFF0B7
:010CAF002222
:02065500C112D0
:02065700C113CD
:060E6900120A90D21122D2
:1008C90074302E7478743D22436F6E6E656374695B
:1008D9006E672E2E2E220074302E7478743D2243BA
:1008E9006F6E6E656374656422006E302E76616C7E
:1008F9003D2564006E312E76616C3D2564006E32B3
:100909002E76616C3D2564006E332E76616C3D2533
:1009190064006765744672616D65466C6167313D57
:100929003100746D302E656E3D31002573256400EC
:0406590041025F00FB
:100B0D00300D38C20D900007E0B4512FA3E0245FE3
:100B1D006007243E70250207BD900009E090025841
:100B2D00F090000AE0900259F090000BE090025A0C
:0C0B3D00F090000CE090025BF0D211225E
:1007BD00900009E0B4CA0C7BFF7A0879C9120B844A
:1007CD00120DEF900009E064CB70427BFF7A08793F
:1007DD00E0120B84120DEF7A0879F390025812098A
:1007ED00A87A0879FD9002591209A87BFF7A097938
:1007FD000790025AE0FD1209AC7BFF7A097911903E
:10080D00025BE0FD1209AC90025F7401F090025F93
:10081D00E0B40126900009E0B4CC0790025F7402A9
:10082D00F0227BFF7A09791B120B84120DEF7BFFEF
:0B083D007A09792B120B84120DEF22B8
:0409A8007BFFE0FDF4
:0B09AC009001FBEBF0A3EAF0A3E9F0E0
:1009B70090023374FFF0A37409F0A37434F090012C
:1009C700FBE0F9A3E0FAA3E0900236C9F0A3EAF04E
:1009D700A3E9F0AF05A3E4F0A3EFF07B017A017977
:1009E700FE1201037B017A0179FE120B84120DEFCF
:0709F7007F787E00020D7500
:100DEF007FFF12008A7FFF12008A7FFF12008A7F27
:060DFF00787E00020D7574
:100D18006E342E76616C3D006E352E76616C3D002A
:100D28006E362E76616C3D006E372E76616C3D0016
:10065D00410258504102595041025A5041025B50DB
:10066E009001F97401F09001F9E0FFC39405400385
:10067E000207301200269001FAEFF09001F9E0B473
:10068E0001217BFF7A0D7918A3E0FD1209AC9002CF
:10069E0058E0FF9001FAE0C39F5004D209807AC25D
:1006AE000980769001F9E0B402217BFF7A0D792062
:1006BE00A3E0FD1209AC900259E0FF9001FAE0C3ED
:1006CE009F5004D20A8052C20A804E9001F9E0B4C3
:1006DE0003217BFF7A0D7928A3E0FD1209AC90026D
:1006EE005AE0FF9001FAE0C39F5004D20B802AC259
:1006FE000B80269001F9E0B4041F7BFF7A0D793050
:10070E00A3E0FD1209AC90025BE0FF9001FAE0C39A
:10071E009F5004D20C8002C20C9001F9E004F0024A
:02072E0006744F
:0107300022A6
:10073D00020A48E493A3F8E493A34003F68001F280
:10074D0008DFF48029E493A3F85407240CC8C333BD
:10075D00C4540F4420C8834004F456800146F6DF8C
:10076D00E4800B0102040810204080900544E47ED3
:10077D00019360BCA3FF543F30E509541FFEE49381
:10078D00A360010ECF54C025E060A840B8E493A348
:10079D00FAE493A3F8E493A3C8C582C8CAC583CA73
:1007AD00F0A3C8C582C8CAC583CADFE9DEE780BE2B
:01066D00008C
:10040300BB010689828A83E0225002E722BBFE02F7
:09041300E32289828A83E493222A
:10041C00BC000BBE0029EF8DF084FFADF022E4CCC4
:10042C00F875F008EF2FFFEE33FEEC33FCEE9DEC8D
:10043C00984005FCEE9DFE0FD5F0E9E4CEFD22EDD3
:10044C00F8F5F0EE8420D21CFEADF075F008EF2F1D
:10045C00FFED33FD4007985006D5F0F222C398FD0E
:05046C000FD5F0EA22AB
:10047100A3F8E0C5F025F0F0E5821582700215833E
:06048100E0C838F0E8229B
:10048700BB0110E58229F582E5833AF583E0F5F0B3
:10049700A3E0225009E92582F886F008E622BBFE90
:1004A7000AE92582F8E2F5F008E222E5832AF583D6
:0804B700E993F5F0A3E993229B
:10009E00E5082433F582E43402F583E00508229066
:1000AE000230300703900233E475F0011204FE02B1
:1000BE0004032000E97F2ED2008018EF540F249005
:1000CE00D43440D4FF30040BEF24BFB41A005003D5
:1000DE002461FFE50960021509050CE50C700205A7
:1000EE000B30070E900230E475F0011204FEEF02A1
:1000FE0004EC020E617403D2078003E4C207F50814
:10010E00900230120515E4F509F50BF50CE50960C2
:10011E00077F201200E180F5750AFFC201C200C2FE
:10012E0002C203C205C206C2081200ADFF700D3036
:10013E0007057F001200F2AF0CAE0B22B4255FC292
:10014E00D5C2041200ADFF24D0B40A00501A75F0C7
:10015E000A780930D50508B6FF0106C6A426F62092
:10016E00D5047002D20380D924CFB41A00EF500404
:10017E00C2E5D2040202F3D20180C6D20080C0D200
:10018E000280BCD2D580BAD20580B47F201200E1A5
:10019E002002077401B5090040F112009EFF120003
:1001AE00E102011BD208D206809512009EFB1200BE
:1001BE009EFA12009EF94A4B700679C47A037BFFB1
:1001CE0020022EE509602A7E008E827583001204BD
:1001DE00BF60060EEE650A70F0C2D5EBC0E0EAC055
:1001EE00E0E9C0E0EE12033AD0E0F9D0E0FAD0E058
:1001FE00FB120403FF60AAEBC0E0EAC0E0E9C0E036
:10020E001200E1D0E02401F9D0E03400FAD0E0FB96
:10021E00E50A0460DCD50AD980877BFF7A0379363C
:10022E00D202809C791080027908C206C20880082A
:10023E00D2D5790A8004790AC2D5E50A047002F58E
:10024E000AE4FAFDFEFF12009EFC7B082001131249
:10025E00009EFD7B1030000A12009EFE12009EFFD3
:10026E007B20EC3382D592D55013C3E43000069F29
:10027E00FFE49EFEE42001039DFDE49CFCE4CBF82C
:10028E00C201EC700CCFCECDCCE824F8F870F38020
:10029E0017C3EF33FFEE33FEED33FDEC33FCEB33E0
:1002AE00FB994002FB0FD8E9EB300105F8D0E0C412
:1002BE0048B201C0E00AEC4D4E4F78207B0070C270
:1002CE00EAB50A0040BCC0E012033CD0F0D0E020FA
:1002DE000104C4C0E0C4B201C0F01200CAD0F0D50F
:1002EE00F0EB02011B12051E01B8530232580189B0
:1002FE004C01854202364F023E44023E49019E4366
:08030E000244550228460228B2
:100316004502284703E450018D2D01912E01B42B8F
:1003260001952301B22003CD2A014D48000001ACFE
:100336003F3F3F00790AA2D5200314300509B910C2
:10034600020404B9080104A2D520060250010420C3
:1003560002689202B509005034C0E07F20300319CC
:100366007F30A20272067205500F120393C202C2B8
:1003760006C205C2087F30800F300503E9C0E012CF
:1003860000E1300503D0E0F9D0E0B509CC3005171F
:100396007F30B9100C1200E17F583004077F788057
:1003A60003B908031200E13002057F2D0200E17F48
:1003B600202008F87F2B2006F322920280CF286E99
:1003C600756C6C2900D20112009E3001F8C20178CA
:1003D6000930D50108F602014D2D50434958120047
:1003E6009E2403B405004001E49003DF931200D27B
:0D03F600743A1200D2D203750904020232DB
:1004BF00BB010CE58229F582E5833AF583E02250F2
:1004CF0006E92582F8E622BBFE06E92582F8E2223C
:0D04DF00E58229F582E5833AF583E4932256
:1004EC00BB010689828A83F0225002F722BBFE01EF
:0204FC00F322E9
:1004FE00F8E0FBA3A3E0F925F0F0E5821582700287
:07050E001583E0FA38F0222A
:09051500EBF0A3EAF0A3E9F022E7
:10051E00D083D082F8E4937012740193700DA3A36C
:10052E0093F8740193F5828883E473740293686080
:06053E00EFA3A3A380DF80
:00000001FF
